:020000040800F2
:10000000FF7F012071120008891100088B11000880
:100010008D1100088F1100089111000800000000E8
:100020000000000000000000000000009311000824
:1000300095110008000000009711000899110008B0
:10004000C1120008C1120008C1120008C112000844
:10005000C1120008C1120008C1120008C112000834
:10006000C1120008C1120008C1120008C112000824
:10007000C1120008C1120008C1120008C112000814
:10008000C1120008C1120008C112000800000000DF
:10009000000000000000000000000000C112000885
:1000A000C1120008C1120008C1120008C1120008E4
:1000B000C1120008C1120008C1120008C1120008D4
:1000C000C1120008C1120008C1120008C1120008C4
:1000D000C1120008C1120008C1120008000000008F
:1000E000C1120008C1120008C1120008000000007F
:1000F000000000000000000000000000C112000825
:1001000000000000C1120008C1120008C11200085E
:1001100000000000000000000000000000000000DF
:10012000C1120008C1120008C1120008C112000863
:10013000C1120008000000000000000000000000E4
:10014000000000000000000000000000C1120008D4
:10015000C1120008C1120008C1120008C112000833
:10016000C1120008C11200080000000000000000D9
:10017000000000000000000000000000000000007F
:1001800000000000C1120008000000000000000094
:04019000C112000890
:1001940010B5054C237833B9044B13B10448AFF3BD
:1001A40000800123237010BD4004002000000000E3
:1001B40004140008084B10B51BB108480849AFF3F4
:1001C40000800848036803B910BD074B002BFBD01F
:1001D400BDE81040184700BF0000000004140008E8
:1001E400440400204004002000000000B0F5807F9B
:1001F4002CD00ED8082829D005D860B3022825D9D8
:10020400042823D07047402820D080281ED01028EE
:100214000BE0B0F5805F19D009D8B0F5806F15D028
:10022400B0F5006F12D0B0F5007F14D10EE0B0F538
:10023400804F0BD0B0F5004F08D0B0F5005F00D070
:100244007047054A136B43F0040303E0024A136B3F
:1002540043F002031363704700380240034B00224B
:100264005A60022218609A60DA60704774040020B1
:10027400B0F5005F06D100F1804000F5F43002498A
:1002840000F052B9704700BF7404002010B5044652
:10029400FFF7ACFF2046FFF7E1FF2046BDE8104022
:1002A400FFF7E6BFB0F5005F08B5014606D1044884
:1002B40000F066FAB0FA80F0400908BD002008BDDD
:1002C40000080240024A136B43F0010313637047B2
:1002D40000380240044B20221A6001225A609A60BE
:1002E4000322DA60704700BF60040020014802491D
:1002F40000F01AB9000002406004002008B5FFF7BE
:10030400E1FFFFF7E7FFBDE80840FFF7EFBF024852
:100314002021012200F03ABA0000024002482021C4
:10032400002200F033BA00BF00000240074AD3683D
:1003340023F4E0631B041B0C43F0BF6343F400335A
:1003440000F0070043EA0023D360704700ED00E0AB
:10035400154BDB68C3F3022370B5C3F107051C1DFD
:10036400042D28BF0425062C8CBF033B0023012445
:1003740004FA03F6AC40013C013E2140994032406E
:10038400002842EA01024FEA0212AFBF00F16040C6
:1003940000F00F00054BD2B2A5BF00F56140D2B208
:1003A4001A5480F8002370BD00ED00E014ED00E065
:1003B4004109012300F01F00024A834042F8213022
:1003C400704700BF00E100E04309012200F01F0074
:1003D40020330249824041F82320704700E100E0C5
:1003E400BFF34F8F0449054BCA6802F4E06213431C
:1003F400CB60BFF34F8FFEE700ED00E00400FA0589
:100404000138B0F1807F3FBF064B074A5860F021A6
:100414003FBF82F8231000200722986034BF1A607F
:100424000120704710E000E000ED00E0024BD868C6
:10043400C0F30220704700BF00ED00E0F0B50028D3
:10044400A8BF00F1604001F00701BABF00F00F003F
:100454000F4C00F56140C1F10706B4BF205C90F871
:1004640000030C1D042E28BF0426062C8CBF033960
:1004740000210124000904FA06F58C4020FA01F752
:10048400013D013C3D40044015601C60F0BD00BFCF
:1004940014ED00E04309012200F01F00403302493B
:1004A400824041F82320704700E100E043094033D3
:1004B400054A00F01F0052F8232001238340134211
:1004C40014BF01200020704700E100E0430901222D
:1004D40000F01F0060330249824041F82320704736
:1004E40000E100E043098033054A00F01F0052F8A0
:1004F400232001238340134214BF012000207047AE
:1005040000E100E0044B1A6804280CBF42F0040226
:1005140022F004021A60704710E000E0704708B54A
:10052400FFF7FCFF08BD00BF2DE9F0410F68002272
:100534000123934003EA07059D4240F0CC804C68B8
:1005440024F0100CBCF1020F14D14FEAD20E00EBD0
:100554008E0E02F00706DEF82030B6004FF00F08CA
:1005640008FA06F823EA08080B69B34048EA0303CB
:10057400CEF820304FEA420E0323066803FA0EF346
:10058400DB4303EA060804F0030606FA0EF60CF150
:10059400FF3C48EA0606BCF1010F066011D88668E4
:1005A40003EA060CCE6806FA0EF64CEA06068660E6
:1005B400466826EA050CC4F3001696404CEA060683
:1005C4004660C66803EA060C8B6803FA0EF64CEA2A
:1005D4000603C360E3007ED5424E736C43F480434C
:1005E400736422F0030606F1804606F59C3602F099
:1005F400030CD6F808E04FEA8C0C0F2303FA0CF333
:100604002EEA030E384B984226D003F580639842B5
:1006140024D003F58063984222D003F58063984286
:1006240020D003F5806398421ED003F5806398427E
:100634001CD003F5806398421AD003F58063984276
:1006440018D003F58063984216D003F5806398426E
:100654000CBF09230A2310E000230EE001230CE061
:1006640002230AE0032308E0042306E0052304E050
:10067400062302E0072300E0082303FA0CF343EA0D
:100684000E03DFF868E0B360DEF80030EE4314F4E4
:10069400803F14BF2B433340CEF80030DEF80430E3
:1006A400DFF848E014F4003F14BF2B433340CEF886
:1006B4000430DEF8083014F4801F14BF2B43334099
:1006C400CEF80830DEF80C30A40254BF06EA030565
:1006D4001D43064BDD600132102A7FF429AFBDE8CB
:1006E400F08100BF0038024000000240003C01409D
:1006F400F0B5002301229A4002EA0104944239D160
:100704005E0003220568B240D243DE08154000EBC8
:100714008606056003F0070E376A0F254FEA8E0E32
:1007240005FA0EFE27EA0E073762866816408660D1
:100734004668E44326404660C6683240C26023F0FF
:10074400030202F1804202F59C3203F0030796682B
:10075400BF00BD4026EA05059560084A1568254096
:100764001560556825405560956825409560D568A5
:100774002C40D4600133102BBCD1F0BD003C0140AF
:100784000369194214BF0120002070470AB1018394
:10079400704741837047436959404161704782B053
:1007A4004FF480330193019B0B430193019BC3617D
:1007B400C161019BC361C3690193C06980F4803046
:1007C400C0F3004002B07047704708B5034B596945
:1007D400084202D05861FFF7F7FF08BD003C014012
:1007E4007047704710B5094B4FF0FF3200241A626E
:1007F4001C625A625C621A611C615A615C619A6192
:100804009C61FFF7EEFF204610BD00BF0038024098
:1008140010B5044600F0CEFB4FF47A73B0FBF3F04E
:10082400FFF7EEFD4FF0FF3021460022FFF790FD69
:10083400002010BD08B50B4B1A6842F400721A6010
:100844001A6842F480621A601A6842F480721A606C
:100854000320FFF76BFD0F20FFF7DAFFFFF7C0FF60
:10086400002008BD003C0240024A136801331360B3
:10087400704700BF5C040020014B1868704700BF3C
:100884005C04002013B50190FFF7F6FF0446FFF760
:10089400F3FF019B001B9842F9D302B010BD034A39
:1008A400136823F002031360704700BF10E000E0F8
:1008B400024A136843F002031360704710E000E03B
:1008C4000048704700000101014B1868000C704794
:1008D400002004E0024B1868C0F30B00704700BF0F
:1008E400002004E0024A536843F001035360704758
:1008F400002004E0024A536823F001035360704768
:10090400002004E0024A536843F002035360704736
:10091400002004E0024A536823F002035360704746
:10092400002004E0024A536843F004035360704714
:10093400002004E0024A536823F004035360704724
:10094400002004E0014B01221A6070470004274292
:10095400014B00221A60704700042742104B1A68AA
:10096400002142F081021A6099601A6822F0A162A3
:1009740022F480321A60596058680A4A02435A6065
:10098400C3F88410D3F8842042F0005242F4405259
:10099400C3F884201A6822F480221A60D960704750
:1009A4000038024010300004F8B503680446D80744
:1009B40003D4236899074DD49EE08B4B9A6802F0C8
:1009C4000C02042A07D09A6802F00C02082A0BD100
:1009D4005B685A0208D5844B1B689B03E9D563689E
:1009E400012BE6D00120F8BD804D00232B70FFF7CA
:1009F40043FF06467C4B1B689F0308D5FFF73CFF6B
:100A040041F28833801B9842F4D90320F8BD23793E
:100A14002B706368012B0ED1FFF72EFF0546724B36
:100A24001B689803C5D4FFF727FF41F28833401BA6
:100A34009842F4D9E9E7FFF71FFF05466A4B1B68A4
:100A44009903B6D5FFF718FF41F28833401B98424B
:100A5400F4D9DAE7644B9A6812F00C0F07D09A685D
:100A640002F00C02082A18D15B685A0215D45E4AB7
:100A740013689B0702D5E368012BB3D11168F823EF
:100A840093FAA3F3B3FA83F32069DBB2984021F01D
:100A9400F80140EA010313602EE0E268544BEAB126
:100AA40001221A60FFF7E8FE05464F490B689F07CD
:100AB40005D4FFF7E1FE401B6428F6D9A5E70A68D0
:100AC400F82393FAA3F3B3FA83F32069DBB29840D3
:100AD40022F0F80240EA02030B600DE01A60FFF70F
:100AE400CBFE0546404B1B689E0705D5FFF7C4FEA9
:100AF400401B6428F6D988E723681D0703D42368BC
:100B0400580748D51FE062693A4B72B101221A6056
:100B1400FFF7B2FE0546344B5B6F9907EFD4FFF73E
:100B2400ABFE401B6428F6D96FE71A60FFF7A4FEFA
:100B340005462D4B5B6F9A07E1D5FFF79DFE401BE1
:100B44006428F6D961E7284A136C43F08053136490
:100B5400A2F5E432136843F480731360FFF78CFE4C
:100B64000546254B1B68DB0518D5244D00232B7047
:100B7400FFF782FE06461C4B1B6F9F0714D4237A93
:100B84002B70A368012B1FD1FFF776FE0546164B89
:100B94001B6F9E0710D5A26992BB74E0FFF76CFE31
:100BA400401B6428DDD930E7FFF766FE41F2883345
:100BB400801B9842DFD928E7FFF75EFE41F28833B5
:100BC400401B9842E3D920E7FFF756FE0546064B43
:100BD4001B6F9807DFD5FFF74FFE41F28833401BA8
:100BE4009842F4D911E700BF0038024002380240AD
:100BF40000004742800E47420070004070380240B7
:100C04002E4B9B6803F00C03082B3FF4EBAE2C4DEA
:100C14000023022A2B6044D1FFF72EFE0746274EFD
:100C24003368990131D447F6C07090FAA0F0B0FA55
:100C340080F04FF4403191FAA1F1B1FA81F14FF013
:100C4400706292FAA2F2B2FA82F2276AE3693B4333
:100C540043F00057636AC0B2834047EA0300A36AC3
:100C64005B08C9B2013B8B40D1B2E26A03438A40BC
:100C74001343736001232B60FFF7FEFD04460F4B03
:100C84001B689A0107D50020F8BDFFF7F5FDC01BCE
:100C94006428C4D9B9E6FFF7EFFD001B6428EED938
:100CA400B3E6FFF7E9FD0446044B1B689B01EAD554
:100CB400FFF7E2FD001B6428F6D9A6E600380240DF
:100CC400600047426F4B1A6802F00F02914270B500
:100CD40004460D4668D9CAB21A701B6803F00F03A4
:100CE4008B4201D0012070BD01688B0741BF66486B
:100CF400836823F0F002A36844BF13438360CE07E4
:100D04000BD421684D0740F1AC805F48836823F41D
:100D1400E052E36813438360A3E062685A4B012AFC
:100D2400196802D111F4003F06E0022A02D111F041
:100D3400007F01E011F0020FD4D0996821F0030183
:100D44000A439A60FFF798FD6368012B05460ED1AC
:100D54004D4B9B6803F00C03042BD2D0FFF78CFDA2
:100D640041F28833401B9842F2D9032070BD022B14
:100D740014D1454B9B6803F00C03082BC1D0FFF73B
:100D84007BFD41F28833401B9842F2D9EDE7FFF72F
:100D940073FD41F28833401B9842E6D83A4B9B6876
:100DA40013F00C0FF3D1ACE70168880741BF364854
:100DB400836823F0F002A36844BF13438360CA0727
:100DC40008D4304BEAB21A701B6803F00F03AB422D
:100DD40088D196E762682C4B012A196802D111F474
:100DE400003F06E0022A02D111F0007F01E011F079
:100DF400020F3FF477AF996821F003010A439A6028
:100E0400FFF73AFD6368012B06460DD11E4B9B6824
:100E140003F00C03042BD4D0FFF72EFD41F28833EA
:100E2400801B9842F2D9A0E7022B14D1164B9B6881
:100E340003F00C03082BC4D0FFF71EFD41F28833E6
:100E4400801B9842F2D990E7FFF716FD41F28833F0
:100E5400801B984289D80C4B9B6813F00C0FF3D17C
:100E6400AFE70B0741BF084A2169936823F4604345
:100E740044BF43EAC10393600F20FFF7C9FC00207D
:100E840070BD00BF003C02400038024070B51B4CEE
:100E940086B00D461646236BA8B943F001032363BD
:100EA4004FF480730193022302930390032305906C
:100EB40001A913480493FFF737FBA16821F0EC6103
:100EC4003143294316E043F0040323634FF40073D2
:100ED4000193022302930323049301A900230948E5
:100EE40003930593FFF720FBA36845EAC60123F0AB
:100EF40078431943A16006B070BD00BF00380240BA
:100F04000000024000080240014B01221A607047B1
:100F14004C004742014B00221A6070474C00474284
:100F240030B5214DAB6803F00C03042B38D0082BEB
:100F340038D16A686B6802F03F044FF4800191FA7B
:100F4400A1F1B1FA81F103F48003C9B2CB4047F6B1
:100F5400C0716B6891FAA1F1B1FA81F147F6C070E2
:100F640004BF124AB2FBF4F2C9B200EA030020FA49
:100F740001F01CBF0E49B1FBF4F202FB00F30A4A74
:100F840050684FF4403292FAA2F2B2FA82F2D2B22C
:100F940000F44030D04001304000B3FBF0F030BDED
:100FA400034830BD014830BD003802400024F4003D
:100FB40000127A0008B5FFF7B3FF094B9A68F023D3
:100FC40093FAA3F3B3FA83F302F0F002DBB222FA4A
:100FD40003F3044AD35CD840034B186008BD00BF38
:100FE400003802401C1400080000002008B5FFF778
:100FF400E1FF084B9A684FF4E05393FAA3F3B3FA72
:1010040083F302F4E052DBB222FA03F3024AD35C24
:10101400D84008BD003802401C14000808B5FFF78A
:10102400C9FF084B9A684FF4604393FAA3F3B3FAE9
:1010340083F302F46042DBB222FA03F3024AD35C84
:10104400D84008BD003802401C1400080F23036078
:10105400344B1A6810B5540301D5052204E01A680C
:1010640012F4803218BF012242601B682D4A13F02B
:10107400010318BF0123C3601168F82393FAA3F393
:10108400B3FA83F301F0F801DBB221FA03F303614D
:10109400136F590701D5052304E0136F13F00103FF
:1010A40018BF01238360536F1E4A13F0010318BF56
:1010B400012343611368DB014CBF022301238361D5
:1010C400536803F48003C361536803F03F0303626E
:1010D400546847F6C07393FAA3F3B3FA83F347F65D
:1010E400C0712140DBB2D940416253684FF44031B2
:1010F40091FAA1F1B1FA81F103F4403303F580339D
:10110400C9B25B00CB40836252684FF0706393FABC
:10111400A3F3B3FA83F302F07062DBB222FA03F3AF
:10112400C36210BD003802400F2303600B4B9A6862
:1011340002F0030242609A6802F0F00282609A6848
:1011440002F4E052C2609B6803F46043DB0803616D
:10115400034B1B6803F00F030B6070470038024019
:10116400003C0240704708B5044BDB681B0604D5FD
:10117400FFF7F8FF024B80221A7008BD00380240C6
:101184000E3802407047FEE7FEE7FEE7FEE77047D1
:1011940070477047FFF768BB0C4B1A68002142F098
:1011A40001021A6099601A6822F0847222F4803273
:1011B4001A60074A5A601A6822F480221A60D960B9
:1011C400044B4FF000629A60704700BF0038024041
:1011D4001030002400ED00E0174A1849936803F02A
:1011E4000C03042B03D0082B03D0154B18E0154B2C
:1011F40016E05068536810F4800F03F03F03506802
:1012040014BF104A0E4AB2FBF3F30B4A5268C2F3FE
:101214000142C0F38810013243435200B3FBF2F39E
:101224000B60054B9B68C3F303130B441A790B68DB
:10123400D3400B60704700BF00380240000000201C
:101244000024F40000127A0008B5FFF757F84FF4B1
:101254000050FFF71BF84FF40050FFF723F810B1CC
:10126400FFF755F8F7E7FFF759F8F4E7DFF834D05C
:10127400002103E00C4B5B58435004310B480C4BEA
:1012840042189A42F6D30B4A02E0002342F8043B88
:10129400094B9A42F9D3FFF77FFF00F011F8FFF7EB
:1012A400D3FF7047FF7F0120401400080000002096
:1012B400400400204004002088040020FEE70000D1
:1012C40070B50F4E0F4D761BB61018BF002405D015
:1012D400013455F8043B9847A642F9D10A4E0B4D08
:1012E400761B00F08DF8B61018BF002406D0013428
:1012F40055F8043B9847A642F9D170BD70BD00BFB4
:1013040034140008341400083C1400083414000891
:10131400024B13B1024800F005B87047000000000A
:1013240035130008014600200246034600F016B8B3
:1013340038B5084B084DED1AAC1018BFED1805D0A0
:10134400013C55F8043D9847002CF9D1BDE83840DC
:1013540000F05CB83C140008401400082DE9F04784
:10136400254C2568D5F84841064688469246994654
:10137400CCB360681F2818DC431C7EB104EB8005E5
:101384000121C5F888A0D4F8887101FA00F2174346
:10139400022EC4F88871C5F808911ED0023063602B
:1013A40044F820800020BDE8F087144B03B34FF4C9
:1013B400C870AFF300800446D0B1D5F84831002797
:1013C40080E88800C5F8484138460123C4F888718C
:1013D400C4F88C71002EE1D0D0E7D4F88C110A4304
:1013E400C4F88C21DAE705F5A674C5F84841C0E7CE
:1013F4004FF0FF30BDE8F087301400080000000013
:10140400F8B500BFF8BC08BC9E467047F8B500BFED
:08141400F8BC08BC9E467047BD
:10141C00000000000102030401020304060708098E
:08142C0043000000180000203D
:0814340015130008B9010008BE
:04143C00950100080E
:101440000024F4000000000000000000010203047A
:101450000607080900000000000000000403002047
:101460006C030020D40300200000000000000000F6
:10147000000000000000000000000000000000006C
:101480000000000000000000000000002C14000814
:10149000000000000000000000000000000000004C
:1014A000000000000000000000000000000000003C
:1014B000000000000000000000000000000000002C
:1014C000000000000000000000000000000000001C
:1014D000000000000000000000000000000000000C
:1014E00000000000000000000000000000000000FC
:1014F00000000000000000000000000000000000EC
:1015000001000000000000000E33CDAB34126DE688
:10151000ECDE05000B0000000000000000000000F1
:1015200000000000000000000000000000000000BB
:1015300000000000000000000000000000000000AB
:10154000000000000000000000000000000000009B
:10155000000000000000000000000000000000008B
:04000005080012716C
:00000001FF
